:100000000C942A000C9447000C9447000C94470071
:100010000C9447000C9447000C9447000C948F0CF0
:100020000C9447000C94C20C0C9447000C944700AD
:100030000C9447000C9447000C9447000C94470024
:100040000C9447000C9447000C9447000C94470014
:100050000C94470011241FBECFE5D8E0DEBFCDBF12
:1000600011E0A0E6B0E0E4E1FEE102C005900D92EF
:10007000AA37B107D9F711E0AAE7B1E001C01D9294
:10008000AC39B107E1F70E94CB0A0C94080F0C942D
:100090000000EF92FF920F931F937B018C0120E0F1
:1000A00030E040E05FE40E94C50388238CF0C80183
:1000B000B70120E030E040E05FE40E94C1010E940F
:1000C000F5039B01AC01205030404040504806C031
:1000D000C801B7010E94F5039B01AC01B901CA0137
:1000E0001F910F91FF90EF900895A0E0B0E0EBE733
:1000F000F0E00C94D10EDC012B01FA019C919230BE
:1001000008F439C1EB018881823008F433C194309E
:1001100069F4843009F02FC111969C91119789815F
:10012000981709F428C1A0E6B0E025C1843009F48D
:1001300021C18230A9F4923009F01DC19A01AD01AC
:1001400088E0EA010990AE01E90109929E0181501F
:10015000C1F7E201898111969C918923818308C1AD
:10016000923009F407C112962D903C901397EB0141
:100170008A819B811496AD90BD90CD90DC901797AD
:10018000EC80FD800E811F819101281B390BB90184
:1001900037FF04C066277727621B730B6032710537
:1001A0000CF061C0121613066CF537014801062EDB
:1001B00004C096948794779467940A94D2F721E0C8
:1001C00030E040E050E004C0220F331F441F551FB1
:1001D0006A95D2F721503040404050402E213F21B7
:1001E00040235123211531054105510521F021E01E
:1001F00030E040E050E079018A01E628F72808293C
:1002000019293CC0232BD1F1260E371E350146019A
:10021000062E04C096948794779467940A94D2F734
:1002200021E030E040E050E004C0220F331F441FC3
:10023000551F6A95D2F721503040404050402A2146
:100240003B214C215D21211531054105510521F04E
:1002500021E030E040E050E059016A01A628B728CB
:10026000C828D9280BC0821593052CF01C01AA249C
:10027000BB24650103C0EE24FF24870111969C91E5
:10028000D20111968C91981709F445C0992339F041
:10029000A80197012A193B094C095D0906C0A6016E
:1002A00095012E193F09400B510B57FD08C01182D3
:1002B0003382228224833583468357831DC081E0A5
:1002C00081833382228288279927DC01821B930B4A
:1002D000A40BB50B84839583A683B7830DC0220F2F
:1002E000331F441F551F24833583468357838281E0
:1002F000938101979383828324813581468157813D
:10030000DA01C9010197A109B1098F5F9F4FAF4F72
:10031000BF4328F30BC0918333822282EA0CFB1C7B
:100320000C1D1D1DE482F5820683178383E0808304
:10033000248135814681578157FF1AC0C901AA27F8
:1003400097FDA095BA2F81709070A070B0705695EF
:10035000479537952795822B932BA42BB52B848318
:100360009583A683B7838281938101969383828349
:10037000DF0101C0D201CD01CDB7DEB7E2E10C94BF
:10038000ED0EA0E2B0E0E7ECF1E00C94DD0E698345
:100390007A838B839C832D833E834F835887E9E048
:1003A000EE2EF12CEC0EFD1ECE010196B7010E943F
:1003B000E6058E010F5E1F4FCE010596B8010E9423
:1003C000E6058A8991E089278A8BC701B801AE01C9
:1003D000475E5F4F0E9475000E941105A096E6E0FF
:1003E0000C94F90EA0E2B0E0E8EFF1E00C94DD0E21
:1003F00069837A838B839C832D833E834F835887C5
:10040000F9E0EF2EF12CEC0EFD1ECE010196B701A6
:100410000E94E6058E010F5E1F4FCE010596B801C2
:100420000E94E605C701B801AE01475E5F4F0E941A
:1004300075000E941105A096E6E00C94F90EA0E26A
:10044000B0E0E5E2F2E00C94D10E69837A838B830D
:100450009C832D833E834F835887CE010196BE0136
:10046000675F7F4F0E94E605CE010596BE016F5E75
:100470007F4F0E94E6059985923088F08989823005
:10048000C8F0943019F4823051F404C0843029F457
:10049000923081F480E690E0C6C0923049F420E0CA
:1004A0009A858A89981321E02A87CE010996BBC0D4
:1004B000823049F420E09A858A89981321E02A8BBA
:1004C000CE014196B0C02D843E844F8458886D88FB
:1004D0007E888F88988CEE24FF248701AA24BB2471
:1004E000650140E050E060E070E0E0E0F0E0C10174
:1004F00081709070892BE9F0E60CF71C081D191D1E
:100500009A01AB012A0D3B1D4C1D5D1D80E090E062
:10051000A0E0B0E0E614F7040805190520F481E036
:1005200090E0A0E0B0E0BA01A901480F591F6A1F8E
:100530007B1FAA0CBB1CCC1CDD1C97FE08C081E0F5
:1005400090E0A0E0B0E0A82AB92ACA2ADB2A3196B6
:10055000E032F10549F0660C771C881C991C569412
:10056000479437942794C3CFFA85EA892B893C892D
:100570008B859C85280F391F2E5F3F4F17C0CA01FE
:1005800081709070892B61F016950795F794E79428
:1005900080E090E0A0E0B0E8E82AF92A0A2B1B2BC3
:1005A00076956795579547952F5F3F4F77FDE7CF36
:1005B0000CC0440F551F661F771F17FD4160EE0CDE
:1005C000FF1C001F111F21503040403090E05907A0
:1005D00090E0690790E4790760F32B8F3C8FDB0193
:1005E000CA018F779070A070B07080349105A1051A
:1005F000B10561F447FD0AC0E114F10401051105DC
:1006000029F0405C5F4F6F4F7F4F40781A8EFE1786
:1006100011F081E08A8F4D8F5E8F6F8F78A383E01A
:10062000898FCE0149960E941105A096E2E10C94B3
:10063000ED0EA8E1B0E0EFE1F3E00C94D90E698390
:100640007A838B839C832D833E834F835887B9E0C5
:10065000EB2EF12CEC0EFD1ECE010196B7010E948F
:10066000E6058E010F5E1F4FCE010596B8010E9470
:10067000E6052985223008F47EC03989323010F42D
:10068000B8017CC08A859A8989278A87243011F02D
:10069000223031F4231709F06EC060E670E06EC0BE
:1006A000343039F41D861E861F86188A1C861B86E8
:1006B00004C0323021F484E08987B7015FC02B8504
:1006C0003C858B899C89281B390B3C872B87ED84C3
:1006D000FE840F851889AD88BE88CF88D88CEA142F
:1006E000FB040C051D0540F4EE0CFF1C001F111F40
:1006F000215030403C872B8720E030E040E050E044
:1007000080E090E0A0E0B0E460E070E0EA14FB0478
:100710000C051D0540F0282B392B4A2B5B2BEA18C2
:10072000FB080C091D09B695A79597958795EE0CC2
:10073000FF1C001F111F6F5F7F4F6F31710531F775
:10074000DA01C9018F779070A070B0708034910584
:10075000A105B10561F427FD0AC0E114F10401050A
:10076000110529F0205C3F4F4F4F5F4F20782D87B8
:100770003E874F87588BBE01675F7F4FCB010E943A
:1007800011056896EAE00C94F50EA8E1B0E0EBECF8
:10079000F3E00C94DD0E69837A838B839C832D8335
:1007A0003E834F83588789E0E82EF12CEC0EFD1E26
:1007B000CE010196B7010E94E6058E010F5E1F4F24
:1007C000CE010596B8010E94E6058985823040F089
:1007D0008989823028F0C701B8010E945E0601C0F5
:1007E0008FEF6896E6E00C94F90EACE0B0E0EBEF2A
:1007F000F3E00C94E10E69837A838B839C83CE01B2
:100800000196BE016B5F7F4F0E94E6058D818230AD
:1008100061F1823050F1843021F48E81882351F1CE
:100820002EC02F81388537FD20C06E812F313105D4
:100830001CF06623F9F023C08EE190E0821B930B3D
:1008400029853A854B855C8504C056954795379533
:1008500027958A95D2F76623B1F05095409530954B
:1008600021953F4F4F4F5F4F0EC020E030E040E0FA
:1008700050E009C02FEF3FEF4FEF5FE704C020E0EB
:1008800030E040E050E8B901CA012C96E2E00C9457
:10089000FD0EA8E0B0E0EFE4F4E00C94D90E7B018B
:1008A0008C01611571058105910519F482E0898338
:1008B00060C083E089838EE1C82ED12CDC82CB829C
:1008C000ED82FE820F831887C801B7010E94C2041F
:1008D000FC013197F7FF3BC0222733272E1B3F0B2C
:1008E00057016801022E04C0D694C794B794A79408
:1008F0000A94D2F740E050E060E070E081E090E0E0
:10090000A0E0B0E004C0880F991FAA1FBB1F2A9562
:10091000D2F70197A109B1098E219F21A023B1230C
:100920000097A105B10521F041E050E060E070E0E2
:100930004A295B296C297D294D835E836F837887E3
:100940008EE190E08E1B9F0B9C838B8312C03097AF
:1009500081F00E2E04C0EE0CFF1C001F111F0A9424
:10096000D2F7ED82FE820F831887CE1ADF0ADC826F
:10097000CB821A82CE0101960E9411052896EAE0E8
:100980000C94F50EEF92FF920F931F937B018C0155
:1009900080E0E81680E0F80681E0080780E01807AC
:1009A00088F48FEFE816F1040105110531F028F005
:1009B00088E090E0A0E0B0E017C080E090E0A0E028
:1009C000B0E012C080E0E81680E0F80680E008079A
:1009D00081E0180728F088E190E0A0E0B0E004C0D2
:1009E00080E190E0A0E0B0E020E230E040E050E0C4
:1009F000281B390B4A0B5B0B04C016950795F7941F
:100A0000E7948A95D2F7F701E859FF4F8081281BB8
:100A1000310941095109C9011F910F91FF90EF90D0
:100A20000895DF92EF92FF920F931F93FC01E480F1
:100A3000F58006811781D1808081823048F480E082
:100A400090E0A0E1B0E0E82AF92A0A2B1B2BA5C010
:100A5000843009F49FC0823021F4EE24FF24870102
:100A600005C0E114F1040105110519F4E0E0F0E01E
:100A700096C0628173819FEF623879070CF05BC08A
:100A800022E83FEF261B370B2A3131052CF020E0FE
:100A900030E040E050E02AC0B801A701022E04C0B7
:100AA00076956795579547950A94D2F781E090E03F
:100AB000A0E0B0E004C0880F991FAA1FBB1F2A95B1
:100AC000D2F70197A109B1098E219F21A023B1235B
:100AD0000097A105B10521F081E090E0A0E0B0E031
:100AE0009A01AB01282B392B4A2B5B2BDA01C90168
:100AF0008F779070A070B07080349105A105B1051A
:100B000039F427FF09C0205C3F4F4F4F5F4F04C0AF
:100B1000215C3F4F4F4F5F4FE0E0F0E02030A0E01E
:100B20003A07A0E04A07A0E45A0710F0E1E0F0E03D
:100B300079018A0127C06038710564F5FB01E1582D
:100B4000FF4FD801C7018F779070A070B0708034CC
:100B50009105A105B10539F4E7FE0DC080E490E0F0
:100B6000A0E0B0E004C08FE390E0A0E0B0E0E80EC9
:100B7000F91E0A1F1B1F17FF05C016950795F7944E
:100B8000E794319687E016950795F794E7948A9550
:100B9000D1F705C0EE24FF248701EFEFF0E06E2FC0
:100BA000679566276795902F9F77D794DD24D79414
:100BB0008E2F8695492F462B582F5D29B701CA01E4
:100BC0001F910F91FF90EF90DF900895FC01DB01E2
:100BD000408151812281622F6F7770E0221F22278E
:100BE000221F9381892F880F822B282F30E0991F95
:100BF0009927991F11969C93119721153105A9F5F5
:100C0000411551056105710511F482E037C082E894
:100C10009FEF13969C938E9312979A01AB0167E016
:100C2000220F331F441F551F6A95D1F783E08C9321
:100C30000DC0220F331F441F551F12968D919C919A
:100C40001397019713969C938E931297203080E010
:100C5000380780E0480780E4580758F314962D932E
:100C60003D934D935C93179708952F3F310579F489
:100C7000411551056105710519F484E08C930895BF
:100C800064FF03C081E08C9312C01C9210C02F57E8
:100C9000304013963C932E93129783E08C9387E019
:100CA000440F551F661F771F8A95D1F770641496FD
:100CB0004D935D936D937C93179708951F93DC017B
:100CC000FB019C91923008F447C08081823008F487
:100CD00043C0943051F411961C91843099F5818170
:100CE000682F70E0611B71093FC0843021F09230A1
:100CF00031F48230B9F18181882389F12DC01196B8
:100D00001C9111978230F1F081811817D9F4129655
:100D10002D913C911397828193818217930794F0D0
:100D200028173907BCF014968D919D910D90BC91B8
:100D3000A02D2481358146815781281739074A071C
:100D40005B0718F4112341F00AC082179307A40728
:100D5000B50740F4112319F061E070E005C06FEFB2
:100D60007FEF02C060E070E0CB011F910895DF9338
:100D7000CF93CDB7DEB780E060E041E00E9481070D
:100D800080E060E040E00E946C08CF91DF91089520
:100D9000DF93CF93CDB7DEB780E060E041E00E9403
:100DA0006C08CF91DF910895DF93CF93CDB7DEB775
:100DB00080E060E040E00E946C08CF91DF910895F0
:100DC000DF93CF9300D000D0CDB7DEB79A8389836D
:100DD0006B830E946D0D0E94C50D883011F01C823E
:100DE00028C089819A8180709770880F892F881F09
:100DF000990B9195806A0E94880D0E94C50D8831DB
:100E000011F01C8216C089810E94880D0E94C50DB8
:100E1000883211F01C820DC08B810E94880D0E94C7
:100E2000C50D883211F01C8204C00E947D0D81E046
:100E30008C838C810F900F900F900F90CF91DF914A
:100E40000895DF93CF9300D000D00F92CDB7DEB7D7
:100E50009A8389837C836B830E946D0D0E94C50DEC
:100E6000883011F01D8244C089819A81807097700A
:100E7000880F892F881F990B9195806A0E94880D91
:100E80000E94C50D883111F01D8232C089810E94F7
:100E9000880D0E94C50D883211F01D8229C00E9464
:100EA0006D0D0E94C50D803111F01D8221C0898118
:100EB0009A8180709770880F892F881F990B919560
:100EC000816A0E94880D0E94C50D803411F01D8238
:100ED0000FC00E94B20DEB81FC8180830E94C50D82
:100EE000883511F01D8204C00E947D0D81E08D8344
:100EF0008D810F900F900F900F900F90CF91DF91F9
:100F00000895DF93CF9300D000D00F92CDB7DEB716
:100F100089836A834B838A81883008F0D5C08981B0
:100F2000843008F0D1C08981282F30E03D832C83A4
:100F30008C819D818130910509F443C02C813D81D4
:100F4000223031052CF48C819D81009771F0BCC05A
:100F50002C813D812230310509F45FC08C819D8157
:100F60008330910509F485C0AFC08B818130A1F435
:100F7000AAE3B0E0EAE3F0E08081482F8A81282FDD
:100F800030E081E090E0022E02C0880F991F0A94A1
:100F9000E2F7842B8C9398C0AAE3B0E0EAE3F0E098
:100FA0008081482F8A81282F30E081E090E0022E56
:100FB00002C0880F991F0A94E2F7809584238C93CE
:100FC00083C08B818130A1F4A7E3B0E0E7E3F0E0D8
:100FD0008081482F8A81282F30E081E090E0022E26
:100FE00002C0880F991F0A94E2F7842B8C936CC07F
:100FF000A7E3B0E0E7E3F0E08081482F8A81282F63
:1010000030E081E090E0022E02C0880F991F0A9420
:10101000E2F7809584238C9357C08B818130A1F4B3
:10102000A4E3B0E0E4E3F0E08081482F8A81282F38
:1010300030E081E090E0022E02C0880F991F0A94F0
:10104000E2F7842B8C9340C0A4E3B0E0E4E3F0E04B
:101050008081482F8A81282F30E081E090E0022EA5
:1010600002C0880F991F0A94E2F7809584238C931D
:101070002BC08B818130A1F4A1E3B0E0E1E3F0E08B
:101080008081482F8A81282F30E081E090E0022E75
:1010900002C0880F991F0A94E2F7842B8C9314C026
:1010A000A1E3B0E0E1E3F0E08081482F8A81282FBE
:1010B00030E081E090E0022E02C0880F991F0A9470
:1010C000E2F7809584238C930F900F900F900F90F0
:1010D0000F90CF91DF910895DF93CF9300D000D090
:1010E0000F92CDB7DEB789836A834B838A818830BC
:1010F00008F0D5C08981843008F0D1C08981282FBB
:1011000030E03D832C838C819D818130910509F4F1
:1011100043C02C813D81223031052CF48C819D818E
:10112000009771F0BCC02C813D812230310509F45B
:101130005FC08C819D818330910509F485C0AFC06B
:101140008B818130A1F4ABE3B0E0EBE3F0E0808190
:10115000482F8A81282F30E081E090E0022E02C0E3
:10116000880F991F0A94E2F7842B8C9398C0ABE305
:10117000B0E0EBE3F0E08081482F8A81282F30E057
:1011800081E090E0022E02C0880F991F0A94E2F7D6
:10119000809584238C9383C08B818130A1F4A8E354
:1011A000B0E0E8E3F0E08081482F8A81282F30E02A
:1011B00081E090E0022E02C0880F991F0A94E2F7A6
:1011C000842B8C936CC0A8E3B0E0E8E3F0E080816E
:1011D000482F8A81282F30E081E090E0022E02C063
:1011E000880F991F0A94E2F7809584238C9357C047
:1011F0008B818130A1F4A5E3B0E0E5E3F0E08081EC
:10120000482F8A81282F30E081E090E0022E02C032
:10121000880F991F0A94E2F7842B8C9340C0A5E3B2
:10122000B0E0E5E3F0E08081482F8A81282F30E0AC
:1012300081E090E0022E02C0880F991F0A94E2F725
:10124000809584238C932BC08B818130A1F4A2E301
:10125000B0E0E2E3F0E08081482F8A81282F30E07F
:1012600081E090E0022E02C0880F991F0A94E2F7F5
:10127000842B8C9314C0A2E3B0E0E2E3F0E0808121
:10128000482F8A81282F30E081E090E0022E02C0B2
:10129000880F991F0A94E2F7809584238C930F900E
:1012A0000F900F900F900F90CF91DF910895DF93E3
:1012B000CF9300D000D00F92CDB7DEB78A836B8377
:1012C00019828B81883008F084C08A81843008F0CC
:1012D00080C08A81282F30E03D832C834C815D8142
:1012E0004130510579F18C819D818230910534F432
:1012F0002C813D812115310569F06BC04C815D81E8
:1013000042305105B9F18C819D818330910509F4FA
:1013100049C05FC0E9E3F0E08081282F30E08B8195
:10132000882F90E0A90102C0559547958A95E2F76C
:10133000CA0181709070882319F081E0898349C0C7
:10134000198247C0E6E3F0E08081282F30E08B81EE
:10135000882F90E0A90102C0559547958A95E2F73C
:10136000CA0181709070882319F081E0898331C0AF
:1013700019822FC0E3E3F0E08081282F30E08B81D9
:10138000882F90E0A90102C0559547958A95E2F70C
:10139000CA0181709070882319F081E0898319C097
:1013A000198217C0E0E3F0E08081282F30E08B81C4
:1013B000882F90E0A90102C0559547958A95E2F7DC
:1013C000CA0181709070882319F081E0898301C07F
:1013D000198289810F900F900F900F900F90CF91ED
:1013E000DF910895DF93CF9300D000D0CDB7DEB763
:1013F00089836A838981843090F58981282F30E040
:101400003C832B838B819C8181309105D1F02B8192
:101410003C81223031052CF48B819C81009761F056
:101420001EC02B813C812230310581F08B819C8153
:101430008330910581F013C0EAE3F0E08A81808374
:101440000EC0E7E3F0E08A81808309C0E4E3F0E0C6
:101450008A81808304C0E1E3F0E08A8180830F9079
:101460000F900F900F90CF91DF910895DF93CF935E
:1014700000D000D0CDB7DEB789836A8389818430FC
:1014800090F58981282F30E03C832B838B819C81D0
:1014900081309105D1F02B813C81223031052CF433
:1014A0008B819C81009761F01EC02B813C81223092
:1014B000310581F08B819C818330910581F013C0CF
:1014C000EBE3F0E08A8180830EC0E8E3F0E08A81FC
:1014D000808309C0E5E3F0E08A81808304C0E2E311
:1014E000F0E08A8180830F900F900F900F90CF9142
:1014F000DF910895DF93CF9300D000D0CDB7DEB752
:101500008A8319828A81843090F58A81282F30E07D
:101510003C832B838B819C8181309105D1F02B8181
:101520003C81223031052CF48B819C81009761F045
:101530001EC02B813C812230310581F08B819C8142
:101540008330910581F013C0E9E3F0E08081898365
:101550000EC0E6E3F0E08081898309C0E3E3F0E0B8
:101560008081898304C0E0E3F0E080818983898100
:101570000F900F900F900F90CF91DF910895DF9310
:10158000CF93CDB7DEB780917B018F5F80937B01D6
:10159000CF91DF910895DF93CF93CDB7DEB780E78A
:1015A00091E00E94D40D0E94D90B0E94B70687E7F4
:1015B00091E00E94520D8FEB9AE00E94400D85E968
:1015C00091E00E946C0E8DE891E00E946C0E1BC0B1
:1015D00080917A01882F90E0FC01EB56FE4F20812C
:1015E00080917A01882F90E0FC01E357FE4F8081C3
:1015F000281731F480917A018F5F80937A0103C0BC
:10160000109268010AC080917A01882F90E0FC0155
:10161000EB56FE4F80818823D9F680916801813096
:1016200009F0BEC081E00E941D0E0E94340E80931E
:101630009401809194018B3209F060C010927A017C
:1016400032C08FE791E00E946C0E1EC080917A013B
:10165000882F90E0FC01EB56FE4F208180917A01AB
:10166000882F90E0FC01E158FE4F8081281731F46B
:1016700080917A018F5F80937A0106C01092680191
:1016800080E00E941D0E0AC080917A01882F90E0B0
:10169000FC01EB56FE4F80818823C1F680917A01D0
:1016A0008F5F80937A0180917A01833050F280912C
:1016B0006801813089F481E064E60E94FE0B8AE6CD
:1016C00091E00E94F50C80917C018530E0F310924E
:1016D0007C010E94280D67C081E0809368010E9410
:1016E000C8068AE691E00E94F50C80917C01843165
:1016F000E1F310927C010E94280D55C010927A01EE
:1017000031C086E891E00E946C0E1DC080917A0184
:10171000882F90E0FC01EB56FE4F208180917A01EA
:10172000882F90E0FC01EA57FE4F8081281749F48A
:1017300081E08093690180917A018F5F80937A01C3
:101740000CC01092690180917A01882F90E0FC0111
:10175000EB56FE4F80818823C9F680917A018F5F16
:1017600080937A0180917A01833058F280916901E7
:10177000813021F481E00E941D0EC0CF0E94C80676
:101780008AE691E00E94F50C80917C018431E1F3BE
:1017900010927C010E94280D80E00E941D0EAECFA9
:1017A00080E00E941D0E10927A0181E08093680112
:1017B00006CFDF93CF93CDB7DEB781E062E041E0A3
:1017C0000E94810781E061E041E00E94810781E0A1
:1017D00063E041E00E94810781E063E040E00E9415
:1017E0006C0881E062E040E00E946C0881E061E00A
:1017F00040E00E946C08CF91DF910895DF93CF9372
:1018000000D000D0CDB7DEB789836A838A81853660
:10181000E0F58981282F30E03C832B838B819C81EC
:1018200081309105B9F02B813C812230310501F1E5
:101830008B819C81009749F581E062E040E00E9445
:101840006C0881E061E040E00E946C088A810E949F
:101850004C0C1BC081E062E041E00E946C0881E01A
:1018600061E040E00E946C088A810E944C0C0DC02F
:1018700081E062E040E00E946C0881E061E041E0CC
:101880000E946C088A810E944C0C0F900F900F9060
:101890000F90CF91DF9108950F931F93DF93CF9314
:1018A0000F92CDB7DEB78983E2E5F0E01082E3E581
:1018B000F0E08AE6808381E063E041E00E948107F6
:1018C0000CE510E08981882F90E0A0E0B0E0BC0139
:1018D000CD010E944904DC01CB01BC01CD0120E017
:1018E00030E048EC52E40E941903DC01CB01BC015A
:1018F000CD0120E030E04AE753E40E941F02DC0102
:10190000CB01BC01CD010E944900DC01CB01F801F3
:1019100080830F90CF91DF911F910F9108951F92B7
:101920000F920FB60F9211242F933F934F935F9313
:101930006F937F938F939F93AF93BF93EF93FF9397
:10194000DF93CF93CDB7DEB780917D0190917E017B
:10195000009729F0E0917D01F0917E010995CF91EA
:10196000DF91FF91EF91BF91AF919F918F917F9107
:101970006F915F914F913F912F910F900FBE0F90FC
:101980001F9018951F920F920FB60F9211242F934C
:101990003F934F935F936F937F938F939F93AF93F7
:1019A000BF93EF93FF93DF93CF93CDB7DEB78091D3
:1019B0007D0190917E01009729F0E0917D01F091E9
:1019C0007E010995CF91DF91FF91EF91BF91AF918A
:1019D0009F918F917F916F915F914F913F912F9147
:1019E0000F900FBE0F901F901895DF93CF9300D0EC
:1019F000CDB7DEB79A838983ACE4B0E0E981FA81A0
:101A00008081918111969C938E93AAE4B0E0E98144
:101A1000FA818281938111969C938E93A9E5B0E01F
:101A2000E9E5F0E0808180618C93EFE4F0E08CE008
:101A30008083AEE4B0E0E981FA819581E981FA81A1
:101A40008481892B8C930F900F90CF91DF91089513
:101A5000DF93CF93CDB7DEB7ECE4F0E011821082D4
:101A6000EAE4F0E011821082E9E5F0E01082EFE4B0
:101A7000F0E01082EEE4F0E01082CF91DF91089563
:101A8000DF93CF9300D0CDB7DEB79A838983898166
:101A90009A8190937E0180937D010F900F90CF915A
:101AA000DF910895DF93CF9300D0CDB7DEB79A834F
:101AB0008983E0E2F0E082E08083E1E2F0E01082FE
:101AC000E2E2F0E082E08083E6E5F0E084E080831B
:101AD0000F900F90CF91DF910895DF93CF93CDB703
:101AE000DEB7E6E5F0E084EA8083E6E5F0E08081B9
:101AF0008823DCF7CF91DF910895DF93CF93CDB7A3
:101B0000DEB7E6E5F0E084E98083CF91DF910895C8
:101B1000DF93CF930F92CDB7DEB78983E3E2F0E096
:101B200089818083E6E5F0E084E88083E6E5F0E003
:101B300080818823DCF70F90CF91DF910895DF93A8
:101B4000CF93CDB7DEB7E6E5F0E084EC8083E6E541
:101B5000F0E080818823DCF7E3E2F0E08081CF9140
:101B6000DF910895DF93CF93CDB7DEB7E6E5F0E0E0
:101B700084E88083E6E5F0E080818823DCF7E3E217
:101B8000F0E08081CF91DF910895DF93CF930F92A2
:101B9000CDB7DEB7E1E2F0E08081887F898389817B
:101BA0000F90CF91DF910895DF93CF9300D000D0B5
:101BB000CDB7DEB79C838B831A821982EBE2F0E00B
:101BC00082E08083EAE2F0E088E18083E0E4F0E014
:101BD00086E88083EB81FC8183819481A581B68135
:101BE000880F991FAA1FBB1F880F991FAA1FBB1F11
:101BF000880F991FAA1FBB1F9C01AD0180E092E1D5
:101C0000AAE7B0E0BC01CD010E94AF0EDA01C90124
:101C100001979A838983E0E4F0E089819A81892F92
:101C200099278083E9E2F0E0898180830F900F900B
:101C30000F900F90CF91DF910895DF93CF930F9284
:101C4000CDB7DEB78983EBE2F0E08081882F90E0AA
:101C5000807290700097B9F3ECE2F0E089818083A4
:101C60000F90CF91DF910895DF93CF93CDB7DEB77B
:101C7000EBE2F0E080818823DCF7ECE2F0E08081A9
:101C8000CF91DF910895DF93CF9300D00F92CDB71E
:101C9000DEB79B838A8319820EC08981282F30E0AA
:101CA0008A819B81FC01E20FF31F80810E941D0E3F
:101CB00089818F5F89838981282F30E08A819B8188
:101CC000FC01E20FF31F8081882339F70F900F90FA
:101CD0000F90CF91DF9108950F931F93DF93CF93D0
:101CE00000D00F92CDB7DEB79B838A83198289819A
:101CF000282F30E08A819B818C01020F131F0E94E4
:101D0000340EF80180830FC089818F5F89838981B8
:101D1000282F30E08A819B818C01020F131F0E94C3
:101D2000340EF80180838981282F30E08A819B81DD
:101D3000FC01E20FF31F8081833231F78981282F64
:101D400030E08A819B81FC01E20FF31F10820F902B
:101D50000F900F90CF91DF911F910F910895A1E205
:101D60001A2EAA1BBB1BFD010DC0AA1FBB1FEE1F15
:101D7000FF1FA217B307E407F50720F0A21BB30B60
:101D8000E40BF50B661F771F881F991F1A9469F7DC
:101D900060957095809590959B01AC01BD01CF0138
:101DA00008952F923F924F925F926F927F928F92FF
:101DB0009F92AF92BF92CF92DF92EF92FF920F93DA
:101DC0001F93CF93DF93CDB7DEB7CA1BDB0B0FB6E4
:101DD000F894DEBF0FBECDBF09942A8839884888A1
:101DE0005F846E847D848C849B84AA84B984C88437
:101DF000DF80EE80FD800C811B81AA81B981CE0F2E
:101E0000D11D0FB6F894DEBF0FBECDBFED01089512
:041E1000F894FFCF74
:101E140000000000000000000001020203030303AD
:101E24000404040404040404050505050505050566
:101E34000505050505050505060606060606060646
:101E4400060606060606060606060606060606062E
:101E54000606060606060606070707070707070716
:101E640007070707070707070707070707070707FE
:101E740007070707070707070707070707070707EE
:101E840007070707070707070707070707070707DE
:101E940007070707070707070808080808080808C6
:101EA40008080808080808080808080808080808AE
:101EB400080808080808080808080808080808089E
:101EC400080808080808080808080808080808088E
:101ED400080808080808080808080808080808087E
:101EE400080808080808080808080808080808086E
:101EF400080808080808080808080808080808085E
:101F0400080808080808080808080808080808084D
:101F1400080808080808080801010000430F05081C
:0A1F24000600008025000002020004
:00000001FF
